{
  "_format": "hh-sol-artifact-1",
  "contractName": "Rewardify",
  "sourceName": "contracts/Rewardify.sol",
  "abi": [
    {
      "inputs": [],
      "stateMutability": "nonpayable",
      "type": "constructor"
    },
    {
      "anonymous": false,
      "inputs": [
        {
          "indexed": true,
          "internalType": "bytes32",
          "name": "channelId",
          "type": "bytes32"
        },
        {
          "indexed": true,
          "internalType": "address",
          "name": "owner",
          "type": "address"
        }
      ],
      "name": "PoolCreated",
      "type": "event"
    },
    {
      "anonymous": false,
      "inputs": [
        {
          "indexed": true,
          "internalType": "bytes32",
          "name": "channelId",
          "type": "bytes32"
        },
        {
          "indexed": true,
          "internalType": "address",
          "name": "from",
          "type": "address"
        },
        {
          "indexed": false,
          "internalType": "uint256",
          "name": "amount",
          "type": "uint256"
        }
      ],
      "name": "Tipped",
      "type": "event"
    },
    {
      "anonymous": false,
      "inputs": [
        {
          "indexed": true,
          "internalType": "bytes32",
          "name": "channelId",
          "type": "bytes32"
        },
        {
          "indexed": true,
          "internalType": "address",
          "name": "oldOwner",
          "type": "address"
        },
        {
          "indexed": true,
          "internalType": "address",
          "name": "newOwner",
          "type": "address"
        }
      ],
      "name": "WalletUpdated",
      "type": "event"
    },
    {
      "anonymous": false,
      "inputs": [
        {
          "indexed": true,
          "internalType": "bytes32",
          "name": "channelId",
          "type": "bytes32"
        },
        {
          "indexed": true,
          "internalType": "address",
          "name": "creator",
          "type": "address"
        },
        {
          "indexed": false,
          "internalType": "uint256",
          "name": "totalAmount",
          "type": "uint256"
        }
      ],
      "name": "Withdrawn",
      "type": "event"
    },
    {
      "stateMutability": "payable",
      "type": "fallback"
    },
    {
      "inputs": [],
      "name": "backend",
      "outputs": [
        {
          "internalType": "address",
          "name": "",
          "type": "address"
        }
      ],
      "stateMutability": "view",
      "type": "function"
    },
    {
      "inputs": [
        {
          "internalType": "bytes32",
          "name": "",
          "type": "bytes32"
        }
      ],
      "name": "channelPools",
      "outputs": [
        {
          "internalType": "address",
          "name": "owner",
          "type": "address"
        },
        {
          "internalType": "uint256",
          "name": "balance",
          "type": "uint256"
        }
      ],
      "stateMutability": "view",
      "type": "function"
    },
    {
      "inputs": [
        {
          "internalType": "bytes32",
          "name": "channelId",
          "type": "bytes32"
        },
        {
          "internalType": "address",
          "name": "owner",
          "type": "address"
        }
      ],
      "name": "createPool",
      "outputs": [],
      "stateMutability": "nonpayable",
      "type": "function"
    },
    {
      "inputs": [
        {
          "internalType": "bytes32",
          "name": "channelId",
          "type": "bytes32"
        }
      ],
      "name": "getOwner",
      "outputs": [
        {
          "internalType": "address",
          "name": "",
          "type": "address"
        }
      ],
      "stateMutability": "view",
      "type": "function"
    },
    {
      "inputs": [
        {
          "internalType": "bytes32",
          "name": "channelId",
          "type": "bytes32"
        }
      ],
      "name": "getPoolBalance",
      "outputs": [
        {
          "internalType": "uint256",
          "name": "",
          "type": "uint256"
        }
      ],
      "stateMutability": "view",
      "type": "function"
    },
    {
      "inputs": [
        {
          "internalType": "bytes32",
          "name": "channelId",
          "type": "bytes32"
        }
      ],
      "name": "tip",
      "outputs": [],
      "stateMutability": "payable",
      "type": "function"
    },
    {
      "inputs": [
        {
          "internalType": "bytes32",
          "name": "channelId",
          "type": "bytes32"
        },
        {
          "internalType": "address[]",
          "name": "recipients",
          "type": "address[]"
        },
        {
          "internalType": "uint256[]",
          "name": "amounts",
          "type": "uint256[]"
        }
      ],
      "name": "withdraw",
      "outputs": [],
      "stateMutability": "nonpayable",
      "type": "function"
    },
    {
      "stateMutability": "payable",
      "type": "receive"
    }
  ],
  "bytecode": "0x6080604052348015600f57600080fd5b5033600160006101000a81548173ffffffffffffffffffffffffffffffffffffffff021916908373ffffffffffffffffffffffffffffffffffffffff1602179055506114ca806100606000396000f3fe6080604052600436106100745760003560e01c8063670429841161004e578063670429841461018057806368bf371d146101a9578063dd4a4c0d146101e7578063deb931a214610203576100b4565b8063099e4133146100ef578063550e6ed11461011a578063609e485014610157576100b4565b366100b4576040517f08c379a00000000000000000000000000000000000000000000000000000000081526004016100ab90610be9565b60405180910390fd5b6040517f08c379a00000000000000000000000000000000000000000000000000000000081526004016100e690610be9565b60405180910390fd5b3480156100fb57600080fd5b50610104610240565b6040516101119190610c4a565b60405180910390f35b34801561012657600080fd5b50610141600480360381019061013c9190610ca5565b610266565b60405161014e9190610ceb565b60405180910390f35b34801561016357600080fd5b5061017e60048036038101906101799190610dc1565b610285565b005b34801561018c57600080fd5b506101a760048036038101906101a29190610e82565b6107c2565b005b3480156101b557600080fd5b506101d060048036038101906101cb9190610ca5565b6109af565b6040516101de929190610ec2565b60405180910390f35b61020160048036038101906101fc9190610ca5565b6109f3565b005b34801561020f57600080fd5b5061022a60048036038101906102259190610ca5565b610b4d565b6040516102379190610c4a565b60405180910390f35b600160009054906101000a900473ffffffffffffffffffffffffffffffffffffffff1681565b6000806000838152602001908152602001600020600101549050919050565b60008060008781526020019081526020016000209050600073ffffffffffffffffffffffffffffffffffffffff168160000160009054906101000a900473ffffffffffffffffffffffffffffffffffffffff1673ffffffffffffffffffffffffffffffffffffffff160361032e576040517f08c379a000000000000000000000000000000000000000000000000000000000815260040161032590610f37565b60405180910390fd5b8060000160009054906101000a900473ffffffffffffffffffffffffffffffffffffffff1673ffffffffffffffffffffffffffffffffffffffff163373ffffffffffffffffffffffffffffffffffffffff1614806103d95750600160009054906101000a900473ffffffffffffffffffffffffffffffffffffffff1673ffffffffffffffffffffffffffffffffffffffff163373ffffffffffffffffffffffffffffffffffffffff16145b610418576040517f08c379a000000000000000000000000000000000000000000000000000000000815260040161040f90610fa3565b60405180910390fd5b828290508585905014610460576040517f08c379a00000000000000000000000000000000000000000000000000000000081526004016104579061100f565b60405180910390fd5b600085859050116104a6576040517f08c379a000000000000000000000000000000000000000000000000000000000815260040161049d9061107b565b60405180910390fd5b600081600101549050600081116104f2576040517f08c379a00000000000000000000000000000000000000000000000000000000081526004016104e9906110e7565b60405180910390fd5b6000805b858590508110156105355785858281811061051457610513611107565b5b90506020020135826105269190611165565b915080806001019150506104f6565b5081811115610579576040517f08c379a0000000000000000000000000000000000000000000000000000000008152600401610570906111e5565b60405180910390fd5b6000836001018190555060005b8787905081101561074457600073ffffffffffffffffffffffffffffffffffffffff168888838181106105bc576105bb611107565b5b90506020020160208101906105d19190611205565b73ffffffffffffffffffffffffffffffffffffffff1603610627576040517f08c379a000000000000000000000000000000000000000000000000000000000815260040161061e9061127e565b60405180910390fd5b600086868381811061063c5761063b611107565b5b90506020020135031561073757600088888381811061065e5761065d611107565b5b90506020020160208101906106739190611205565b73ffffffffffffffffffffffffffffffffffffffff1687878481811061069c5761069b611107565b5b905060200201356040516106af906112cf565b60006040518083038185875af1925050503d80600081146106ec576040519150601f19603f3d011682016040523d82523d6000602084013e6106f1565b606091505b5050905080610735576040517f08c379a000000000000000000000000000000000000000000000000000000000815260040161072c90611330565b60405180910390fd5b505b8080600101915050610586565b508260000160009054906101000a900473ffffffffffffffffffffffffffffffffffffffff1673ffffffffffffffffffffffffffffffffffffffff16887f04eda370f8b8612fa7266d7ebbd41af9d694e19793fe9d9ff31b3ddbd99b08e1846040516107b09190610ceb565b60405180910390a35050505050505050565b600073ffffffffffffffffffffffffffffffffffffffff168173ffffffffffffffffffffffffffffffffffffffff1603610831576040517f08c379a00000000000000000000000000000000000000000000000000000000081526004016108289061139c565b60405180910390fd5b600073ffffffffffffffffffffffffffffffffffffffff1660008084815260200190815260200160002060000160009054906101000a900473ffffffffffffffffffffffffffffffffffffffff1673ffffffffffffffffffffffffffffffffffffffff16146108d5576040517f08c379a00000000000000000000000000000000000000000000000000000000081526004016108cc90611408565b60405180910390fd5b60405180604001604052808273ffffffffffffffffffffffffffffffffffffffff168152602001600081525060008084815260200190815260200160002060008201518160000160006101000a81548173ffffffffffffffffffffffffffffffffffffffff021916908373ffffffffffffffffffffffffffffffffffffffff160217905550602082015181600101559050508073ffffffffffffffffffffffffffffffffffffffff16827fa843b0068d872c047023d406f9e5cea249189566b6fe594909f554578e81656d60405160405180910390a35050565b60006020528060005260406000206000915090508060000160009054906101000a900473ffffffffffffffffffffffffffffffffffffffff16908060010154905082565b60008060008381526020019081526020016000209050600073ffffffffffffffffffffffffffffffffffffffff168160000160009054906101000a900473ffffffffffffffffffffffffffffffffffffffff1673ffffffffffffffffffffffffffffffffffffffff1603610a9c576040517f08c379a0000000000000000000000000000000000000000000000000000000008152600401610a9390610f37565b60405180910390fd5b60003411610adf576040517f08c379a0000000000000000000000000000000000000000000000000000000008152600401610ad690611474565b60405180910390fd5b34816001016000828254610af39190611165565b925050819055503373ffffffffffffffffffffffffffffffffffffffff16827f0151faccd240317074531046f03541fa6730271998b121127da727645d6a371d34604051610b419190610ceb565b60405180910390a35050565b600080600083815260200190815260200160002060000160009054906101000a900473ffffffffffffffffffffffffffffffffffffffff169050919050565b600082825260208201905092915050565b7f55736520746970286368616e6e656c49642920746f2073656e642066756e6473600082015250565b6000610bd3602083610b8c565b9150610bde82610b9d565b602082019050919050565b60006020820190508181036000830152610c0281610bc6565b9050919050565b600073ffffffffffffffffffffffffffffffffffffffff82169050919050565b6000610c3482610c09565b9050919050565b610c4481610c29565b82525050565b6000602082019050610c5f6000830184610c3b565b92915050565b600080fd5b600080fd5b6000819050919050565b610c8281610c6f565b8114610c8d57600080fd5b50565b600081359050610c9f81610c79565b92915050565b600060208284031215610cbb57610cba610c65565b5b6000610cc984828501610c90565b91505092915050565b6000819050919050565b610ce581610cd2565b82525050565b6000602082019050610d006000830184610cdc565b92915050565b600080fd5b600080fd5b600080fd5b60008083601f840112610d2b57610d2a610d06565b5b8235905067ffffffffffffffff811115610d4857610d47610d0b565b5b602083019150836020820283011115610d6457610d63610d10565b5b9250929050565b60008083601f840112610d8157610d80610d06565b5b8235905067ffffffffffffffff811115610d9e57610d9d610d0b565b5b602083019150836020820283011115610dba57610db9610d10565b5b9250929050565b600080600080600060608688031215610ddd57610ddc610c65565b5b6000610deb88828901610c90565b955050602086013567ffffffffffffffff811115610e0c57610e0b610c6a565b5b610e1888828901610d15565b9450945050604086013567ffffffffffffffff811115610e3b57610e3a610c6a565b5b610e4788828901610d6b565b92509250509295509295909350565b610e5f81610c29565b8114610e6a57600080fd5b50565b600081359050610e7c81610e56565b92915050565b60008060408385031215610e9957610e98610c65565b5b6000610ea785828601610c90565b9250506020610eb885828601610e6d565b9150509250929050565b6000604082019050610ed76000830185610c3b565b610ee46020830184610cdc565b9392505050565b7f4368616e6e656c206e6f74207265676973746572656400000000000000000000600082015250565b6000610f21601683610b8c565b9150610f2c82610eeb565b602082019050919050565b60006020820190508181036000830152610f5081610f14565b9050919050565b7f4e6f7420617574686f72697a6564000000000000000000000000000000000000600082015250565b6000610f8d600e83610b8c565b9150610f9882610f57565b602082019050919050565b60006020820190508181036000830152610fbc81610f80565b9050919050565b7f4c656e677468206d69736d617463680000000000000000000000000000000000600082015250565b6000610ff9600f83610b8c565b915061100482610fc3565b602082019050919050565b6000602082019050818103600083015261102881610fec565b9050919050565b7f4e6f20726563697069656e747300000000000000000000000000000000000000600082015250565b6000611065600d83610b8c565b91506110708261102f565b602082019050919050565b6000602082019050818103600083015261109481611058565b9050919050565b7f456d70747920706f6f6c00000000000000000000000000000000000000000000600082015250565b60006110d1600a83610b8c565b91506110dc8261109b565b602082019050919050565b60006020820190508181036000830152611100816110c4565b9050919050565b7f4e487b7100000000000000000000000000000000000000000000000000000000600052603260045260246000fd5b7f4e487b7100000000000000000000000000000000000000000000000000000000600052601160045260246000fd5b600061117082610cd2565b915061117b83610cd2565b925082820190508082111561119357611192611136565b5b92915050565b7f5061796f7574206578636565647320706f6f6c2062616c616e63650000000000600082015250565b60006111cf601b83610b8c565b91506111da82611199565b602082019050919050565b600060208201905081810360008301526111fe816111c2565b9050919050565b60006020828403121561121b5761121a610c65565b5b600061122984828501610e6d565b91505092915050565b7f496e76616c696420726563697069656e74000000000000000000000000000000600082015250565b6000611268601183610b8c565b915061127382611232565b602082019050919050565b600060208201905081810360008301526112978161125b565b9050919050565b600081905092915050565b50565b60006112b960008361129e565b91506112c4826112a9565b600082019050919050565b60006112da826112ac565b9150819050919050565b7f5472616e73666572206661696c65640000000000000000000000000000000000600082015250565b600061131a600f83610b8c565b9150611325826112e4565b602082019050919050565b600060208201905081810360008301526113498161130d565b9050919050565b7f496e76616c6964206f776e657200000000000000000000000000000000000000600082015250565b6000611386600d83610b8c565b915061139182611350565b602082019050919050565b600060208201905081810360008301526113b581611379565b9050919050565b7f506f6f6c20616c72656164792065786973747300000000000000000000000000600082015250565b60006113f2601383610b8c565b91506113fd826113bc565b602082019050919050565b60006020820190508181036000830152611421816113e5565b9050919050565b7f4e6f204554482073656e74000000000000000000000000000000000000000000600082015250565b600061145e600b83610b8c565b915061146982611428565b602082019050919050565b6000602082019050818103600083015261148d81611451565b905091905056fea2646970667358221220f4041154ecebc9524f57c0382a008b3cff08de8224ad7aa20851cb81fca532ac64736f6c634300081c0033",
  "linkReferences": {},
  "deployedLinkReferences": {}
}