{
  "_format": "hh-sol-artifact-1",
  "contractName": "Rewardify",
  "sourceName": "contracts/Rewardify.sol",
  "abi": [
    {
      "anonymous": false,
      "inputs": [
        {
          "indexed": true,
          "internalType": "bytes32",
          "name": "channelId",
          "type": "bytes32"
        },
        {
          "indexed": true,
          "internalType": "address",
          "name": "owner",
          "type": "address"
        }
      ],
      "name": "PoolCreated",
      "type": "event"
    },
    {
      "anonymous": false,
      "inputs": [
        {
          "indexed": true,
          "internalType": "bytes32",
          "name": "channelId",
          "type": "bytes32"
        },
        {
          "indexed": true,
          "internalType": "address",
          "name": "from",
          "type": "address"
        },
        {
          "indexed": false,
          "internalType": "uint256",
          "name": "amount",
          "type": "uint256"
        }
      ],
      "name": "Tipped",
      "type": "event"
    },
    {
      "anonymous": false,
      "inputs": [
        {
          "indexed": true,
          "internalType": "bytes32",
          "name": "channelId",
          "type": "bytes32"
        },
        {
          "indexed": true,
          "internalType": "address",
          "name": "oldOwner",
          "type": "address"
        },
        {
          "indexed": true,
          "internalType": "address",
          "name": "newOwner",
          "type": "address"
        }
      ],
      "name": "WalletUpdated",
      "type": "event"
    },
    {
      "anonymous": false,
      "inputs": [
        {
          "indexed": true,
          "internalType": "bytes32",
          "name": "channelId",
          "type": "bytes32"
        },
        {
          "indexed": true,
          "internalType": "address",
          "name": "creator",
          "type": "address"
        },
        {
          "indexed": false,
          "internalType": "uint256",
          "name": "totalAmount",
          "type": "uint256"
        }
      ],
      "name": "Withdrawn",
      "type": "event"
    },
    {
      "stateMutability": "payable",
      "type": "fallback"
    },
    {
      "inputs": [
        {
          "internalType": "bytes32",
          "name": "",
          "type": "bytes32"
        }
      ],
      "name": "channelPools",
      "outputs": [
        {
          "internalType": "address",
          "name": "owner",
          "type": "address"
        },
        {
          "internalType": "uint256",
          "name": "balance",
          "type": "uint256"
        }
      ],
      "stateMutability": "view",
      "type": "function"
    },
    {
      "inputs": [
        {
          "internalType": "bytes32",
          "name": "channelId",
          "type": "bytes32"
        },
        {
          "internalType": "address",
          "name": "owner",
          "type": "address"
        }
      ],
      "name": "createPool",
      "outputs": [],
      "stateMutability": "nonpayable",
      "type": "function"
    },
    {
      "inputs": [
        {
          "internalType": "bytes32",
          "name": "channelId",
          "type": "bytes32"
        }
      ],
      "name": "getOwner",
      "outputs": [
        {
          "internalType": "address",
          "name": "",
          "type": "address"
        }
      ],
      "stateMutability": "view",
      "type": "function"
    },
    {
      "inputs": [
        {
          "internalType": "bytes32",
          "name": "channelId",
          "type": "bytes32"
        }
      ],
      "name": "getPoolBalance",
      "outputs": [
        {
          "internalType": "uint256",
          "name": "",
          "type": "uint256"
        }
      ],
      "stateMutability": "view",
      "type": "function"
    },
    {
      "inputs": [
        {
          "internalType": "bytes32",
          "name": "channelId",
          "type": "bytes32"
        }
      ],
      "name": "tip",
      "outputs": [],
      "stateMutability": "payable",
      "type": "function"
    },
    {
      "inputs": [
        {
          "internalType": "bytes32",
          "name": "channelId",
          "type": "bytes32"
        },
        {
          "internalType": "address[]",
          "name": "recipients",
          "type": "address[]"
        },
        {
          "internalType": "uint256[]",
          "name": "amounts",
          "type": "uint256[]"
        }
      ],
      "name": "withdraw",
      "outputs": [],
      "stateMutability": "nonpayable",
      "type": "function"
    },
    {
      "stateMutability": "payable",
      "type": "receive"
    }
  ],
  "bytecode": "0x6080604052348015600f57600080fd5b506114068061001f6000396000f3fe6080604052600436106100595760003560e01c8063550e6ed1146100d4578063609e485014610111578063670429841461013a57806368bf371d14610163578063dd4a4c0d146101a1578063deb931a2146101bd57610099565b36610099576040517f08c379a000000000000000000000000000000000000000000000000000000000815260040161009090610b25565b60405180910390fd5b6040517f08c379a00000000000000000000000000000000000000000000000000000000081526004016100cb90610b25565b60405180910390fd5b3480156100e057600080fd5b506100fb60048036038101906100f69190610b85565b6101fa565b6040516101089190610bcb565b60405180910390f35b34801561011d57600080fd5b5061013860048036038101906101339190610ca1565b610219565b005b34801561014657600080fd5b50610161600480360381019061015c9190610d94565b6106fe565b005b34801561016f57600080fd5b5061018a60048036038101906101859190610b85565b6108eb565b604051610198929190610de3565b60405180910390f35b6101bb60048036038101906101b69190610b85565b61092f565b005b3480156101c957600080fd5b506101e460048036038101906101df9190610b85565b610a89565b6040516101f19190610e0c565b60405180910390f35b6000806000838152602001908152602001600020600101549050919050565b60008060008781526020019081526020016000209050600073ffffffffffffffffffffffffffffffffffffffff168160000160009054906101000a900473ffffffffffffffffffffffffffffffffffffffff1673ffffffffffffffffffffffffffffffffffffffff16036102c2576040517f08c379a00000000000000000000000000000000000000000000000000000000081526004016102b990610e73565b60405180910390fd5b8060000160009054906101000a900473ffffffffffffffffffffffffffffffffffffffff1673ffffffffffffffffffffffffffffffffffffffff163373ffffffffffffffffffffffffffffffffffffffff1614610354576040517f08c379a000000000000000000000000000000000000000000000000000000000815260040161034b90610edf565b60405180910390fd5b82829050858590501461039c576040517f08c379a000000000000000000000000000000000000000000000000000000000815260040161039390610f4b565b60405180910390fd5b600085859050116103e2576040517f08c379a00000000000000000000000000000000000000000000000000000000081526004016103d990610fb7565b60405180910390fd5b6000816001015490506000811161042e576040517f08c379a000000000000000000000000000000000000000000000000000000000815260040161042590611023565b60405180910390fd5b6000805b85859050811015610471578585828181106104505761044f611043565b5b905060200201358261046291906110a1565b91508080600101915050610432565b50818111156104b5576040517f08c379a00000000000000000000000000000000000000000000000000000000081526004016104ac90611121565b60405180910390fd5b6000836001018190555060005b8787905081101561068057600073ffffffffffffffffffffffffffffffffffffffff168888838181106104f8576104f7611043565b5b905060200201602081019061050d9190611141565b73ffffffffffffffffffffffffffffffffffffffff1603610563576040517f08c379a000000000000000000000000000000000000000000000000000000000815260040161055a906111ba565b60405180910390fd5b600086868381811061057857610577611043565b5b90506020020135031561067357600088888381811061059a57610599611043565b5b90506020020160208101906105af9190611141565b73ffffffffffffffffffffffffffffffffffffffff168787848181106105d8576105d7611043565b5b905060200201356040516105eb9061120b565b60006040518083038185875af1925050503d8060008114610628576040519150601f19603f3d011682016040523d82523d6000602084013e61062d565b606091505b5050905080610671576040517f08c379a00000000000000000000000000000000000000000000000000000000081526004016106689061126c565b60405180910390fd5b505b80806001019150506104c2565b508260000160009054906101000a900473ffffffffffffffffffffffffffffffffffffffff1673ffffffffffffffffffffffffffffffffffffffff16887f04eda370f8b8612fa7266d7ebbd41af9d694e19793fe9d9ff31b3ddbd99b08e1846040516106ec9190610bcb565b60405180910390a35050505050505050565b600073ffffffffffffffffffffffffffffffffffffffff168173ffffffffffffffffffffffffffffffffffffffff160361076d576040517f08c379a0000000000000000000000000000000000000000000000000000000008152600401610764906112d8565b60405180910390fd5b600073ffffffffffffffffffffffffffffffffffffffff1660008084815260200190815260200160002060000160009054906101000a900473ffffffffffffffffffffffffffffffffffffffff1673ffffffffffffffffffffffffffffffffffffffff1614610811576040517f08c379a000000000000000000000000000000000000000000000000000000000815260040161080890611344565b60405180910390fd5b60405180604001604052808273ffffffffffffffffffffffffffffffffffffffff168152602001600081525060008084815260200190815260200160002060008201518160000160006101000a81548173ffffffffffffffffffffffffffffffffffffffff021916908373ffffffffffffffffffffffffffffffffffffffff160217905550602082015181600101559050508073ffffffffffffffffffffffffffffffffffffffff16827fa843b0068d872c047023d406f9e5cea249189566b6fe594909f554578e81656d60405160405180910390a35050565b60006020528060005260406000206000915090508060000160009054906101000a900473ffffffffffffffffffffffffffffffffffffffff16908060010154905082565b60008060008381526020019081526020016000209050600073ffffffffffffffffffffffffffffffffffffffff168160000160009054906101000a900473ffffffffffffffffffffffffffffffffffffffff1673ffffffffffffffffffffffffffffffffffffffff16036109d8576040517f08c379a00000000000000000000000000000000000000000000000000000000081526004016109cf90610e73565b60405180910390fd5b60003411610a1b576040517f08c379a0000000000000000000000000000000000000000000000000000000008152600401610a12906113b0565b60405180910390fd5b34816001016000828254610a2f91906110a1565b925050819055503373ffffffffffffffffffffffffffffffffffffffff16827f0151faccd240317074531046f03541fa6730271998b121127da727645d6a371d34604051610a7d9190610bcb565b60405180910390a35050565b600080600083815260200190815260200160002060000160009054906101000a900473ffffffffffffffffffffffffffffffffffffffff169050919050565b600082825260208201905092915050565b7f55736520746970286368616e6e656c49642920746f2073656e642066756e6473600082015250565b6000610b0f602083610ac8565b9150610b1a82610ad9565b602082019050919050565b60006020820190508181036000830152610b3e81610b02565b9050919050565b600080fd5b600080fd5b6000819050919050565b610b6281610b4f565b8114610b6d57600080fd5b50565b600081359050610b7f81610b59565b92915050565b600060208284031215610b9b57610b9a610b45565b5b6000610ba984828501610b70565b91505092915050565b6000819050919050565b610bc581610bb2565b82525050565b6000602082019050610be06000830184610bbc565b92915050565b600080fd5b600080fd5b600080fd5b60008083601f840112610c0b57610c0a610be6565b5b8235905067ffffffffffffffff811115610c2857610c27610beb565b5b602083019150836020820283011115610c4457610c43610bf0565b5b9250929050565b60008083601f840112610c6157610c60610be6565b5b8235905067ffffffffffffffff811115610c7e57610c7d610beb565b5b602083019150836020820283011115610c9a57610c99610bf0565b5b9250929050565b600080600080600060608688031215610cbd57610cbc610b45565b5b6000610ccb88828901610b70565b955050602086013567ffffffffffffffff811115610cec57610ceb610b4a565b5b610cf888828901610bf5565b9450945050604086013567ffffffffffffffff811115610d1b57610d1a610b4a565b5b610d2788828901610c4b565b92509250509295509295909350565b600073ffffffffffffffffffffffffffffffffffffffff82169050919050565b6000610d6182610d36565b9050919050565b610d7181610d56565b8114610d7c57600080fd5b50565b600081359050610d8e81610d68565b92915050565b60008060408385031215610dab57610daa610b45565b5b6000610db985828601610b70565b9250506020610dca85828601610d7f565b9150509250929050565b610ddd81610d56565b82525050565b6000604082019050610df86000830185610dd4565b610e056020830184610bbc565b9392505050565b6000602082019050610e216000830184610dd4565b92915050565b7f4368616e6e656c206e6f74207265676973746572656400000000000000000000600082015250565b6000610e5d601683610ac8565b9150610e6882610e27565b602082019050919050565b60006020820190508181036000830152610e8c81610e50565b9050919050565b7f4e6f74206368616e6e656c206f776e6572000000000000000000000000000000600082015250565b6000610ec9601183610ac8565b9150610ed482610e93565b602082019050919050565b60006020820190508181036000830152610ef881610ebc565b9050919050565b7f4c656e677468206d69736d617463680000000000000000000000000000000000600082015250565b6000610f35600f83610ac8565b9150610f4082610eff565b602082019050919050565b60006020820190508181036000830152610f6481610f28565b9050919050565b7f4e6f20726563697069656e747300000000000000000000000000000000000000600082015250565b6000610fa1600d83610ac8565b9150610fac82610f6b565b602082019050919050565b60006020820190508181036000830152610fd081610f94565b9050919050565b7f456d70747920706f6f6c00000000000000000000000000000000000000000000600082015250565b600061100d600a83610ac8565b915061101882610fd7565b602082019050919050565b6000602082019050818103600083015261103c81611000565b9050919050565b7f4e487b7100000000000000000000000000000000000000000000000000000000600052603260045260246000fd5b7f4e487b7100000000000000000000000000000000000000000000000000000000600052601160045260246000fd5b60006110ac82610bb2565b91506110b783610bb2565b92508282019050808211156110cf576110ce611072565b5b92915050565b7f5061796f7574206578636565647320706f6f6c2062616c616e63650000000000600082015250565b600061110b601b83610ac8565b9150611116826110d5565b602082019050919050565b6000602082019050818103600083015261113a816110fe565b9050919050565b60006020828403121561115757611156610b45565b5b600061116584828501610d7f565b91505092915050565b7f496e76616c696420726563697069656e74000000000000000000000000000000600082015250565b60006111a4601183610ac8565b91506111af8261116e565b602082019050919050565b600060208201905081810360008301526111d381611197565b9050919050565b600081905092915050565b50565b60006111f56000836111da565b9150611200826111e5565b600082019050919050565b6000611216826111e8565b9150819050919050565b7f5472616e73666572206661696c65640000000000000000000000000000000000600082015250565b6000611256600f83610ac8565b915061126182611220565b602082019050919050565b6000602082019050818103600083015261128581611249565b9050919050565b7f496e76616c6964206f776e657200000000000000000000000000000000000000600082015250565b60006112c2600d83610ac8565b91506112cd8261128c565b602082019050919050565b600060208201905081810360008301526112f1816112b5565b9050919050565b7f506f6f6c20616c72656164792065786973747300000000000000000000000000600082015250565b600061132e601383610ac8565b9150611339826112f8565b602082019050919050565b6000602082019050818103600083015261135d81611321565b9050919050565b7f4e6f204554482073656e74000000000000000000000000000000000000000000600082015250565b600061139a600b83610ac8565b91506113a582611364565b602082019050919050565b600060208201905081810360008301526113c98161138d565b905091905056fea264697066735822122097568e2282668c6a1aa88aa967fdb63351c978129f2d92862bf3f881a835024564736f6c634300081c0033",
  "linkReferences": {},
  "deployedLinkReferences": {}
}